:100000000C9446000C9406030C9431030C945C038E
:100010000C9487030C94B2030C94DD030C94080435
:100020000C9433040C9483090C9458090C942D09F6
:100030000C94AC080C94D7080C9481080C945608C6
:100040000C942B080C9458000C9458000C945800F5
:100050000C9458000C9458000C9458000C945800C0
:100060000C9402090C945A0A0C94D9090C94040AB1
:100070000C942F0A0C94AE090C9458000C94580060
:100080000C9458000C9458000C94580011241FBE76
:10009000CFEFD0E1DEBFCDBF11E0A0E0B1E001C005
:1000A0001D92A833B107E1F70E9465010C94850AFF
:1000B0000C940000809102019091030101969093AD
:1000C00003018093020108958FEF8BBB08951BBA43
:1000D0000895809106019091070101969093070180
:1000E0008093060108958091060190910701019780
:1000F0009093070180930601089500D000D0EDB7DA
:10010000FEB73196ADB7BEB711961C9283E08183DE
:1001100084E090E0938382830E9444050F900F90C7
:100120000F900F9080E069E970E042E00E94A40225
:1001300008950F931F9300D000D0EDB7FEB731960E
:10014000ADB7BEB711961C9283E0818313821282F1
:100150000E9444050F900F900F900F908091020124
:1001600090910301B9E0853C9B07E0F08091050187
:1001700091E0892780930501882339F081E00E946E
:10018000E80282E00E94E80293C081E069E670E044
:1001900043E00E94A40282E063E770E043E00E9433
:1001A000A40286C080910401823019F410920401E7
:1001B00003C08F5F80930401109104011130B9F0E6
:1001C000113020F0123009F073C042C000D000D0CE
:1001D000EDB7FEB7319681E0ADB7BEB711968C93FF
:1001E00083E08183138212820E9444052CC000D0D8
:1001F0000F92EDB7FEB73196ADB7BEB711961C930F
:1002000087E0818302E002830E945E040F92EDB7D3
:10021000FEB73196ADB7BEB711961C93018387E642
:1002200090E0938382830E94EF05EDB7FEB731968D
:10023000ADB7BEB711961C93118284E690E093830C
:1002400082830E94EF050F900F900F900F9030C0A7
:1002500000D000D0EDB7FEB7319601E0ADB7BEB724
:1002600011960C9301838EE090E0938382830E9429
:100270004405EDB7FEB73196ADB7BEB711960C93F6
:10028000118386E090E0938382830E9444050F905F
:100290000F900F900F9081E060E47CE90E942107AD
:1002A00081E062E00E94A70681E060E00E94A7066C
:1002B000109203011092020180E06DE770E043E0CC
:1002C0000E94A4021F910F9108950F931F93DF9333
:1002D000CF9300D000D000D0CDB7DEB78FEF8ABB70
:1002E0001BBA8FB78F778FBF17B887E886B9809111
:1002F00061008F778093610080E06DE770E043E0FC
:100300000E94A40281E069E670E043E00E94A4023A
:1003100082E063E770E043E00E94A40200D00F9205
:10032000EDB7FEB73196ADB7BEB711961C9212E08D
:10033000118312820E945E040F92EDB7FEB73196D0
:10034000ADB7BEB711961C9201E001838AE590E03B
:10035000938382830E94EF050F900F900F900F9070
:1003600080E06AEF70E00E94210700D000D00F9279
:10037000EDB7FEB73196ADB7BEB711960C938EE0D0
:100380008183128286E090E0948383830E945E04DE
:100390000F92EDB7FEB73196ADB7BEB711960C937D
:1003A000118387E690E09383828384E391E09583D1
:1003B00084830E94EF050F900F90EDB7FEB7319642
:1003C000ADB7BEB711960C93118284E690E093838B
:1003D00082830E94EF050F900F900F900F9081E0A5
:1003E00060E47CE90E9421078DE692E09A8389838C
:1003F00082E492E09C838B838BE192E09E838D83E9
:100400008FB780688FBF8E010F5F1F4FE09104018F
:10041000F0E0EE0FFF1FE00FF11F0190F081E02DE3
:100420000995F4CF806487B9369A349BFECF24B106
:1004300035B1C9010895CF93DF9380910501C09133
:100440003401D0913501882369F087E00E941202BF
:100450009C01220F331F280F391F28583A4F398328
:1004600028830DC02091060130910701C901880F32
:10047000991F820F931F8857954099838883DF9136
:10048000CF910895CF93DF9380910501882351F098
:10049000C0913401D091350187E00E941202998306
:1004A000888318C0809106019091070124E0803074
:1004B000920734F08FEF93E0909307018093060149
:1004C000E0913401F091350180910601909107018E
:1004D00091838083DF91CF910895809105018823D6
:1004E00089F087E00E9412029C01220F232F221F15
:1004F000330B319581E090E002C0880F991F2A9557
:10050000E2F720C0809106019091070188309105A3
:1005100024F010920701109206018091060190913B
:10052000070197FF06C087E090E090930701809352
:10053000060181E090E00090060102C0880F991F3B
:100540000A94E2F78BBB0895CF93DF93AFB7F8948B
:1005500099B7E82FF0E021E030E0082E02C0220F2A
:10056000331F0A94E2F7922B99BF50E02095843014
:1005700088F430916A00CF01880F991F02C0440FA0
:10058000551F8A95E2F7342B30936A0091B392237A
:1005900091BB10C03AB7CF010497880F991FEA01A9
:1005A00002C0CC0FDD1F8A95E2F73C2B3ABF92B117
:1005B000922392B9EE0FFF1FE85FFE4F71836083B5
:1005C0009FB78A2F8078892B8FBFDF91CF910895B5
:1005D0004FB7F89499B7E82FF0E021E030E002C07F
:1005E000220F331F8A95E2F72095292329BFEE0FAA
:1005F000FF1FE85FFE4F8091360190913701918394
:1006000080838FB74078482B4FBF08951F920F9279
:100610000FB60F920BB60F9211242F933F934F9367
:100620005F936F937F938F939F93AF93BF93EF935A
:10063000FF93E0910801F09109010995FF91EF9175
:10064000BF91AF919F918F917F916F915F914F91EA
:100650003F912F910F900BBE0F900FBE0F901F90E8
:1006600018951F920F920FB60F920BB60F9211248E
:100670002F933F934F935F936F937F938F939F93AA
:10068000AF93BF93EF93FF93E0910A01F0910B01B9
:100690000995FF91EF91BF91AF919F918F917F91BC
:1006A0006F915F914F913F912F910F900BBE0F90E3
:1006B0000FBE0F901F9018951F920F920FB60F92BA
:1006C0000BB60F9211242F933F934F935F936F9329
:1006D0007F938F939F93AF93BF93EF93FF93E0919B
:1006E0000C01F0910D010995FF91EF91BF91AF9130
:1006F0009F918F917F916F915F914F913F912F913A
:100700000F900BBE0F900FBE0F901F9018951F9269
:100710000F920FB60F920BB60F9211242F933F93A7
:100720004F935F936F937F938F939F93AF93BF93F9
:10073000EF93FF93E0910E01F0910F010995FF9166
:10074000EF91BF91AF919F918F917F916F915F9149
:100750004F913F912F910F900BBE0F900FBE0F90B6
:100760001F9018951F920F920FB60F920BB60F9213
:1007700011242F933F934F935F936F937F938F93A6
:100780009F93AF93BF93EF93FF93E0911001F0918C
:1007900011010995FF91EF91BF91AF919F918F91B9
:1007A0007F916F915F914F913F912F910F900BBE71
:1007B0000F900FBE0F901F9018951F920F920FB6BB
:1007C0000F920BB60F9211242F933F934F935F9389
:1007D0006F937F938F939F93AF93BF93EF93FF9309
:1007E000E0911201F09113010995FF91EF91BF91F2
:1007F000AF919F918F917F916F915F914F913F91B9
:100800002F910F900BBE0F900FBE0F901F90189559
:100810001F920F920FB60F920BB60F9211242F93C7
:100820003F934F935F936F937F938F939F93AF9378
:10083000BF93EF93FF93E0911401F0911501099597
:10084000FF91EF91BF91AF919F918F917F916F91A8
:100850005F914F913F912F910F900BBE0F900FBE64
:100860000F901F9018951F920F920FB60F920BB614
:100870000F9211242F933F934F935F936F937F9326
:100880008F939F93AF93BF93EF93FF93E0911601E4
:10089000F09117010995FF91EF91BF91AF919F9151
:1008A0008F917F916F915F914F913F912F910F9019
:1008B0000BBE0F900FBE0F901F901895CF92DF9236
:1008C000EF92FF920F931F93DF93CF93CDB7DEB7D5
:1008D0006B852C854D85FFB6F894CE010E96613060
:1008E000C9F1613030F0623021F0633009F0BEC0F0
:1008F00031C0613019F0623029F402C0EEE403C067
:10090000E5E401C0E3E5F0E021702295220F220F1B
:10091000207C30813F7B322B30832081277F2083D6
:1009200047702081287F242B2083009709F49EC0E4
:10093000DC019C9193709295907F80818F7C892BB4
:10094000808398B3662311F080E801C080E1892B91
:1009500088BB8CC0623019F0633029F402C0E5E432
:1009600003C0EAE801C0EEE4F0E0522F5370318199
:100970003C7F352B318330E02C70307035952795D6
:10098000359527952370220F220F220F3081377E55
:10099000322B308347702081287F242B20830097BF
:1009A00009F464C0613021F437E3C32ED12C03C0B5
:1009B00022E2C22ED12C70E026E030E0261B370B5D
:1009C00041E050E08A0102C0000F111F2A95E2F7B2
:1009D000E02E27E030E0261B370B8A0102C0000F13
:1009E000111F2A95E2F728E030E0261B370B02C0E2
:1009F000440F551F2A95E2F710E035C00296DB013F
:100A00005C91252F30E02C7030702830310591F04A
:100A10002C303105D1F02430310511F55295550FA8
:100A2000550F507C31813F73352B3183D6013C917A
:100A30003E2915C053705295507F31813F7C352B34
:100A40003183D6013C91302B0AC05370550F550F9E
:100A50003181337F352B3183D6013C91342B3C934C
:100A60001F5F133019F0BC01009741F69FB78F2D1F
:100A70008078892B8FBFCF91DF911F910F91FF90CD
:100A8000EF90DF90CF900895DF93CF93CDB7DEB78F
:100A90008D819E813FB7F894DE0117968130A1F1D8
:100AA000813030F0823021F0833009F090C02CC0CA
:100AB000813019F0823029F402C0EEE403C0E5E48D
:100AC00001C0E3E5109709F482C0F0E08C91923008
:100AD00091F09330B9F0913009F079C0982F91706E
:100AE0009295990F990F907C80818F7B892B8083C1
:100AF0008081877F6BC0982F93709295907F8081C3
:100B00008F7C63C0982F5EC0823031F0833011F04B
:100B1000EEE403C0EAE801C0E5E4F0E0923001F160
:100B2000933009F44EC0913009F051C0109709F488
:100B30004EC08C91282F237091819C7F922B9183A2
:100B400090E08C70907095958795959587958370BA
:100B5000880F880F880F9081977E982B908337C0DD
:100B60001097A9F1BD0143E027C06E5F7F4FDC0104
:100B70002C91822F90E08C7090708830910569F0F4
:100B80008C30910581F084309105A1F42295220FDB
:100B9000220F207C81818F730BC023702295207FD0
:100BA00081818F7C05C02370220F220F8181837F7A
:100BB000822B8183415059F0CB0161157105A9F653
:100BC00006C09C9197708081887F892B80839FB716
:100BD000832F8078892B8FBFCF91DF9108950F935A
:100BE0001F93DF93CF93CDB7DEB75F8118858985DB
:100BF0009A854FB7F894DE011B965130E1F15130E0
:100C000030F0523021F0533009F098C034C0612FD9
:100C100070E0E52FE695F0E0EE0FFF1FE60FF71FFF
:100C2000EE0FFF1FE85EFE4F91838083E7B723E05E
:100C3000529F90011124260F371F81E090E002C0DF
:100C4000880F991F2A95E2F7E82BE7BF109709F460
:100C500075C0ED91FC911197513019F0523029F483
:100C600002C08EE403C085E401C083E590E00297F2
:100C70009183808363C0052F0695602F70E0212F3C
:100C800030E0FB01EE0FFF1FEE0FFF1FE60FF71F17
:100C9000E20FF31FEE0FFF1FE05EFE4F9183808394
:100CA000143069F420917D0081E090E002C0880F4B
:100CB000991F0A95E2F7282B20937D003FC01097DB
:100CC00011F1ED91FC911197113079F01230D9F4B6
:100CD000523019F0533029F402C085E403C08AE889
:100CE00001C08EE490E004970CC0523019F05330EC
:100CF00029F402C085E403C08AE801C08EE490E0D4
:100D00000697918380832E5F3F4F513059F457B738
:100D100081E090E002C0880F991F2A95E2F7582BD6
:100D200057BF0CC050917D0081E090E002C0880F59
:100D3000991F2A95E2F7582B50937D008FB7407882
:100D4000482B4FBFCF91DF911F910F910895AFB7FF
:100D5000F894813061F1813030F0823021F08330BD
:100D600009F069C024C070E0E82FE695F0E0EE0FCE
:100D7000FF1FE60FF71FEE0FFF1FE85EFE4F2091EB
:100D80003601309137013183208347B793E0899F43
:100D9000C0011124860F971F21E030E002C0220F0E
:100DA000331F8A95E2F72095242327BF44C0782F6C
:100DB0007695472F50E0262F30E0FA01EE0FFF1F07
:100DC000EE0FFF1FE40FF51FE20FF31FEE0FFF1FE3
:100DD000E05EFE4F409136015091370151834083D0
:100DE000643061F420917D0081E090E002C0880FC2
:100DF000991F7A95E2F7809582231BC02E5F3F4FA3
:100E0000813061F447B781E090E002C0880F991FFC
:100E10002A95E2F78095842387BF0DC040917D001D
:100E200081E090E002C0880F991F2A95E2F7809533
:100E3000842380937D009FB78A2F8078892B8FBF72
:100E40000895813069F1813030F0823021F08330B3
:100E500009F06CC025C0813019F0823029F402C03D
:100E6000EEE403C0E5E401C0E3E5F0E0908196958F
:100E70009695208122952695269521709270922B29
:100E800009F454C0813019F0823029F402C0EEE434
:100E900003C0E5E401C0E3E5F0E03297608346C0BB
:100EA000823019F0833029F402C0E5E403C0EAE897
:100EB00001C0EEE4F0E090819695218123709C7052
:100EC000922B983009F1993018F4943079F510C0CC
:100ED0009B3071F09C3028F4993051F09A3041F5F4
:100EE00013C09E3089F09F3019F09C3009F50CC07A
:100EF000823031F0833011F0EEE403C0EAE801C043
:100F0000E5E4F0E0349710C0823019F0833029F422
:100F100002C095E403C09AE801C09EE4E9EFFFEF48
:100F2000E81BF109E90FF11D7183608380E00895EA
:100F30008FEF0895813071F1813030F0823021F0EF
:100F4000833009F081C026C0813019F0823029F445
:100F500002C0EEE403C0E5E401C0E3E5F0E0908107
:100F600096959695208122952695269521709270CA
:100F7000922B09F46CC0813019F0823029F402C040
:100F8000EEE403C0E5E401C0E3E5F0E03297208140
:100F900030E05FC0823019F0833029F402C0E5E40C
:100FA00003C0EAE801C0EEE4F0E09081969521816B
:100FB00023709C70922B973029F1983078F49330FD
:100FC00009F1943030F4913009F441C09230B8F412
:100FD00013C09530E1F1963090F417C09B30A9F022
:100FE0009C3018F49930E9F410C09E30D1F09F3055
:100FF00061F09C3049F515C02FEF3FEF2AC02FEF6D
:1010000031E027C02FEF33E024C0823031F083304D
:1010100011F0EEE403C0EAE801C0E5E4F0E0349743
:1010200010C0823019F0833029F402C095E403C067
:101030009AE801C09EE4E9EFFFEFE81BF109E90F30
:10104000F11D2081318105C020E030E002C02FEF8A
:1010500030E0C90108951F920F920FB60F920BB6A0
:101060000F9211242F933F934F935F936F937F932E
:101070008F939F93AF93BF93EF93FF93E0911801EA
:10108000F09119010995FF91EF91BF91AF919F9157
:101090008F917F916F915F914F913F912F910F9021
:1010A0000BBE0F900FBE0F901F9018951F920F92BE
:1010B0000FB60F920BB60F9211242F933F934F93BD
:1010C0005F936F937F938F939F93AF93BF93EF93B0
:1010D000FF93E0911A01F0911B010995FF91EF91A7
:1010E000BF91AF919F918F917F916F915F914F9140
:1010F0003F912F910F900BBE0F900FBE0F901F903E
:1011000018951F920F920FB60F920BB60F921124E3
:101110002F933F934F935F936F937F938F939F93FF
:10112000AF93BF93EF93FF93E0912001F0912101E2
:101130000995FF91EF91BF91AF919F918F917F9111
:101140006F915F914F913F912F910F900BBE0F9038
:101150000FBE0F901F9018951F920F920FB60F920F
:101160000BB60F9211242F933F934F935F936F937E
:101170007F938F939F93AF93BF93EF93FF93E091F0
:101180002401F09125010995FF91EF91BF91AF9155
:101190009F918F917F916F915F914F913F912F918F
:1011A0000F900BBE0F900FBE0F901F9018951F92BF
:1011B0000F920FB60F920BB60F9211242F933F93FD
:1011C0004F935F936F937F938F939F93AF93BF934F
:1011D000EF93FF93E0912201F09123010995FF9194
:1011E000EF91BF91AF919F918F917F916F915F919F
:1011F0004F913F912F910F900BBE0F900FBE0F900C
:101200001F9018951F920F920FB60F920BB60F9268
:1012100011242F933F934F935F936F937F938F93FB
:101220009F93AF93BF93EF93FF93E0912801F091C9
:1012300029010995FF91EF91BF91AF919F918F91F6
:101240007F916F915F914F913F912F910F900BBEC6
:101250000F900FBE0F901F9018951F920F920FB610
:101260000F920BB60F9211242F933F934F935F93DE
:101270006F937F938F939F93AF93BF93EF93FF935E
:10128000E0912601F09127010995FF91EF91BF911F
:10129000AF919F918F917F916F915F914F913F910E
:1012A0002F910F900BBE0F900FBE0F901F901895AF
:1012B0001F920F920FB60F920BB60F9211242F931D
:1012C0003F934F935F936F937F938F939F93AF93CE
:1012D000BF93EF93FF93E0911C01F0911D010995DD
:1012E000FF91EF91BF91AF919F918F917F916F91FE
:1012F0005F914F913F912F910F900BBE0F900FBEBA
:101300000F901F9018951F920F920FB60F920BB669
:101310000F9211242F933F934F935F936F937F937B
:101320008F939F93AF93BF93EF93FF93E0911E0131
:10133000F0911F010995FF91EF91BF91AF919F919E
:101340008F917F916F915F914F913F912F910F906E
:101350000BBE0F900FBE0F901F9018951F920F920B
:101360000FB60F920BB60F9211242F933F934F930A
:101370005F936F937F938F939F93AF93BF93EF93FD
:10138000FF93E0912A01F0912B010995FF91EF91D4
:10139000BF91AF919F918F917F916F915F914F918D
:1013A0003F912F910F900BBE0F900FBE0F901F908B
:1013B00018951F920F920FB60F920BB60F92112431
:1013C0002F933F934F935F936F937F938F939F934D
:1013D000AF93BF93EF93FF93E0912E01F0912F0114
:1013E0000995FF91EF91BF91AF919F918F917F915F
:1013F0006F915F914F913F912F910F900BBE0F9086
:101400000FBE0F901F9018951F920F920FB60F925C
:101410000BB60F9211242F933F934F935F936F93CB
:101420007F938F939F93AF93BF93EF93FF93E0913D
:101430002C01F0912D010995FF91EF91BF91AF9192
:101440009F918F917F916F915F914F913F912F91DC
:101450000F900BBE0F900FBE0F901F9018951F920C
:101460000F920FB60F920BB60F9211242F933F934A
:101470004F935F936F937F938F939F93AF93BF939C
:10148000EF93FF93E0913201F09133010995FF91C1
:10149000EF91BF91AF919F918F917F916F915F91EC
:1014A0004F913F912F910F900BBE0F900FBE0F9059
:1014B0001F9018951F920F920FB60F920BB60F92B6
:1014C00011242F933F934F935F936F937F938F9349
:1014D0009F93AF93BF93EF93FF93E0913001F0910F
:1014E00031010995FF91EF91BF91AF919F918F913C
:1014F0007F916F915F914F913F912F910F900BBE14
:0E1500000F900FBE0F901F901895F894FFCF1C
:00000001FF
